{
  "_format": "hh-sol-artifact-1",
  "contractName": "EventTicketsNFT",
  "sourceName": "contracts/Example 1/EventTicketsNFT.sol",
  "abi": [
    {
      "inputs": [
        {
          "internalType": "string",
          "name": "eventName",
          "type": "string"
        },
        {
          "internalType": "string",
          "name": "tokenSymbol",
          "type": "string"
        },
        {
          "internalType": "address",
          "name": "contractOwner",
          "type": "address"
        }
      ],
      "stateMutability": "nonpayable",
      "type": "constructor"
    },
    {
      "inputs": [],
      "name": "ERC725Y_DataKeysValuesEmptyArray",
      "type": "error"
    },
    {
      "inputs": [],
      "name": "ERC725Y_DataKeysValuesLengthMismatch",
      "type": "error"
    },
    {
      "inputs": [],
      "name": "ERC725Y_MsgValueDisallowed",
      "type": "error"
    },
    {
      "inputs": [
        {
          "internalType": "bytes",
          "name": "storedData",
          "type": "bytes"
        }
      ],
      "name": "InvalidExtensionAddress",
      "type": "error"
    },
    {
      "inputs": [
        {
          "internalType": "bytes",
          "name": "data",
          "type": "bytes"
        }
      ],
      "name": "InvalidFunctionSelector",
      "type": "error"
    },
    {
      "inputs": [],
      "name": "LSP4TokenNameNotEditable",
      "type": "error"
    },
    {
      "inputs": [],
      "name": "LSP4TokenSymbolNotEditable",
      "type": "error"
    },
    {
      "inputs": [
        {
          "internalType": "address",
          "name": "tokenOwner",
          "type": "address"
        },
        {
          "internalType": "uint256",
          "name": "authorizedAmount",
          "type": "uint256"
        },
        {
          "internalType": "address",
          "name": "operator",
          "type": "address"
        },
        {
          "internalType": "uint256",
          "name": "amount",
          "type": "uint256"
        }
      ],
      "name": "LSP7AmountExceedsAuthorizedAmount",
      "type": "error"
    },
    {
      "inputs": [
        {
          "internalType": "uint256",
          "name": "balance",
          "type": "uint256"
        },
        {
          "internalType": "address",
          "name": "tokenOwner",
          "type": "address"
        },
        {
          "internalType": "uint256",
          "name": "amount",
          "type": "uint256"
        }
      ],
      "name": "LSP7AmountExceedsBalance",
      "type": "error"
    },
    {
      "inputs": [],
      "name": "LSP7CannotSendToSelf",
      "type": "error"
    },
    {
      "inputs": [],
      "name": "LSP7CannotSendWithAddressZero",
      "type": "error"
    },
    {
      "inputs": [],
      "name": "LSP7CannotUseAddressZeroAsOperator",
      "type": "error"
    },
    {
      "inputs": [],
      "name": "LSP7DecreasedAllowanceBelowZero",
      "type": "error"
    },
    {
      "inputs": [],
      "name": "LSP7InvalidTransferBatch",
      "type": "error"
    },
    {
      "inputs": [
        {
          "internalType": "address",
          "name": "tokenReceiver",
          "type": "address"
        }
      ],
      "name": "LSP7NotifyTokenReceiverContractMissingLSP1Interface",
      "type": "error"
    },
    {
      "inputs": [
        {
          "internalType": "address",
          "name": "tokenReceiver",
          "type": "address"
        }
      ],
      "name": "LSP7NotifyTokenReceiverIsEOA",
      "type": "error"
    },
    {
      "inputs": [],
      "name": "LSP7TokenContractCannotHoldValue",
      "type": "error"
    },
    {
      "inputs": [],
      "name": "LSP7TokenOwnerCannotBeOperator",
      "type": "error"
    },
    {
      "inputs": [
        {
          "internalType": "bytes4",
          "name": "functionSelector",
          "type": "bytes4"
        }
      ],
      "name": "NoExtensionFoundForFunctionSelector",
      "type": "error"
    },
    {
      "inputs": [
        {
          "internalType": "address",
          "name": "callerAddress",
          "type": "address"
        }
      ],
      "name": "OwnableCallerNotTheOwner",
      "type": "error"
    },
    {
      "inputs": [],
      "name": "OwnableCannotSetZeroAddressAsOwner",
      "type": "error"
    },
    {
      "anonymous": false,
      "inputs": [
        {
          "indexed": true,
          "internalType": "address",
          "name": "operator",
          "type": "address"
        },
        {
          "indexed": true,
          "internalType": "address",
          "name": "tokenOwner",
          "type": "address"
        },
        {
          "indexed": true,
          "internalType": "uint256",
          "name": "amount",
          "type": "uint256"
        },
        {
          "indexed": false,
          "internalType": "bytes",
          "name": "operatorNotificationData",
          "type": "bytes"
        }
      ],
      "name": "AuthorizedOperator",
      "type": "event"
    },
    {
      "anonymous": false,
      "inputs": [
        {
          "indexed": true,
          "internalType": "bytes32",
          "name": "dataKey",
          "type": "bytes32"
        },
        {
          "indexed": false,
          "internalType": "bytes",
          "name": "dataValue",
          "type": "bytes"
        }
      ],
      "name": "DataChanged",
      "type": "event"
    },
    {
      "anonymous": false,
      "inputs": [
        {
          "indexed": true,
          "internalType": "address",
          "name": "previousOwner",
          "type": "address"
        },
        {
          "indexed": true,
          "internalType": "address",
          "name": "newOwner",
          "type": "address"
        }
      ],
      "name": "OwnershipTransferred",
      "type": "event"
    },
    {
      "anonymous": false,
      "inputs": [
        {
          "indexed": true,
          "internalType": "address",
          "name": "operator",
          "type": "address"
        },
        {
          "indexed": true,
          "internalType": "address",
          "name": "tokenOwner",
          "type": "address"
        },
        {
          "indexed": false,
          "internalType": "bytes",
          "name": "operatorNotificationData",
          "type": "bytes"
        }
      ],
      "name": "RevokedOperator",
      "type": "event"
    },
    {
      "anonymous": false,
      "inputs": [
        {
          "indexed": true,
          "internalType": "address",
          "name": "operator",
          "type": "address"
        },
        {
          "indexed": true,
          "internalType": "address",
          "name": "from",
          "type": "address"
        },
        {
          "indexed": true,
          "internalType": "address",
          "name": "to",
          "type": "address"
        },
        {
          "indexed": false,
          "internalType": "uint256",
          "name": "amount",
          "type": "uint256"
        },
        {
          "indexed": false,
          "internalType": "bool",
          "name": "force",
          "type": "bool"
        },
        {
          "indexed": false,
          "internalType": "bytes",
          "name": "data",
          "type": "bytes"
        }
      ],
      "name": "Transfer",
      "type": "event"
    },
    {
      "stateMutability": "payable",
      "type": "fallback"
    },
    {
      "inputs": [
        {
          "internalType": "address",
          "name": "operator",
          "type": "address"
        },
        {
          "internalType": "uint256",
          "name": "amount",
          "type": "uint256"
        },
        {
          "internalType": "bytes",
          "name": "operatorNotificationData",
          "type": "bytes"
        }
      ],
      "name": "authorizeOperator",
      "outputs": [],
      "stateMutability": "nonpayable",
      "type": "function"
    },
    {
      "inputs": [
        {
          "internalType": "address",
          "name": "operator",
          "type": "address"
        },
        {
          "internalType": "address",
          "name": "tokenOwner",
          "type": "address"
        }
      ],
      "name": "authorizedAmountFor",
      "outputs": [
        {
          "internalType": "uint256",
          "name": "",
          "type": "uint256"
        }
      ],
      "stateMutability": "view",
      "type": "function"
    },
    {
      "inputs": [
        {
          "internalType": "address",
          "name": "tokenOwner",
          "type": "address"
        }
      ],
      "name": "balanceOf",
      "outputs": [
        {
          "internalType": "uint256",
          "name": "",
          "type": "uint256"
        }
      ],
      "stateMutability": "view",
      "type": "function"
    },
    {
      "inputs": [],
      "name": "decimals",
      "outputs": [
        {
          "internalType": "uint8",
          "name": "",
          "type": "uint8"
        }
      ],
      "stateMutability": "view",
      "type": "function"
    },
    {
      "inputs": [
        {
          "internalType": "address",
          "name": "operator",
          "type": "address"
        },
        {
          "internalType": "uint256",
          "name": "subtractedAmount",
          "type": "uint256"
        },
        {
          "internalType": "bytes",
          "name": "operatorNotificationData",
          "type": "bytes"
        }
      ],
      "name": "decreaseAllowance",
      "outputs": [],
      "stateMutability": "nonpayable",
      "type": "function"
    },
    {
      "inputs": [
        {
          "internalType": "bytes32",
          "name": "dataKey",
          "type": "bytes32"
        }
      ],
      "name": "getData",
      "outputs": [
        {
          "internalType": "bytes",
          "name": "dataValue",
          "type": "bytes"
        }
      ],
      "stateMutability": "view",
      "type": "function"
    },
    {
      "inputs": [
        {
          "internalType": "bytes32[]",
          "name": "dataKeys",
          "type": "bytes32[]"
        }
      ],
      "name": "getDataBatch",
      "outputs": [
        {
          "internalType": "bytes[]",
          "name": "dataValues",
          "type": "bytes[]"
        }
      ],
      "stateMutability": "view",
      "type": "function"
    },
    {
      "inputs": [
        {
          "internalType": "address",
          "name": "tokenOwner",
          "type": "address"
        }
      ],
      "name": "getOperatorsOf",
      "outputs": [
        {
          "internalType": "address[]",
          "name": "",
          "type": "address[]"
        }
      ],
      "stateMutability": "view",
      "type": "function"
    },
    {
      "inputs": [
        {
          "internalType": "address",
          "name": "operator",
          "type": "address"
        },
        {
          "internalType": "uint256",
          "name": "addedAmount",
          "type": "uint256"
        },
        {
          "internalType": "bytes",
          "name": "operatorNotificationData",
          "type": "bytes"
        }
      ],
      "name": "increaseAllowance",
      "outputs": [],
      "stateMutability": "nonpayable",
      "type": "function"
    },
    {
      "inputs": [
        {
          "internalType": "address",
          "name": "to",
          "type": "address"
        },
        {
          "internalType": "uint256",
          "name": "amount",
          "type": "uint256"
        },
        {
          "internalType": "bool",
          "name": "force",
          "type": "bool"
        },
        {
          "internalType": "bytes",
          "name": "data",
          "type": "bytes"
        }
      ],
      "name": "mint",
      "outputs": [],
      "stateMutability": "nonpayable",
      "type": "function"
    },
    {
      "inputs": [],
      "name": "owner",
      "outputs": [
        {
          "internalType": "address",
          "name": "",
          "type": "address"
        }
      ],
      "stateMutability": "view",
      "type": "function"
    },
    {
      "inputs": [],
      "name": "renounceOwnership",
      "outputs": [],
      "stateMutability": "nonpayable",
      "type": "function"
    },
    {
      "inputs": [
        {
          "internalType": "address",
          "name": "operator",
          "type": "address"
        },
        {
          "internalType": "bytes",
          "name": "operatorNotificationData",
          "type": "bytes"
        }
      ],
      "name": "revokeOperator",
      "outputs": [],
      "stateMutability": "nonpayable",
      "type": "function"
    },
    {
      "inputs": [
        {
          "internalType": "bytes32",
          "name": "dataKey",
          "type": "bytes32"
        },
        {
          "internalType": "bytes",
          "name": "dataValue",
          "type": "bytes"
        }
      ],
      "name": "setData",
      "outputs": [],
      "stateMutability": "payable",
      "type": "function"
    },
    {
      "inputs": [
        {
          "internalType": "bytes32[]",
          "name": "dataKeys",
          "type": "bytes32[]"
        },
        {
          "internalType": "bytes[]",
          "name": "dataValues",
          "type": "bytes[]"
        }
      ],
      "name": "setDataBatch",
      "outputs": [],
      "stateMutability": "payable",
      "type": "function"
    },
    {
      "inputs": [
        {
          "internalType": "bytes4",
          "name": "interfaceId",
          "type": "bytes4"
        }
      ],
      "name": "supportsInterface",
      "outputs": [
        {
          "internalType": "bool",
          "name": "",
          "type": "bool"
        }
      ],
      "stateMutability": "view",
      "type": "function"
    },
    {
      "inputs": [],
      "name": "totalSupply",
      "outputs": [
        {
          "internalType": "uint256",
          "name": "",
          "type": "uint256"
        }
      ],
      "stateMutability": "view",
      "type": "function"
    },
    {
      "inputs": [
        {
          "internalType": "address",
          "name": "from",
          "type": "address"
        },
        {
          "internalType": "address",
          "name": "to",
          "type": "address"
        },
        {
          "internalType": "uint256",
          "name": "amount",
          "type": "uint256"
        },
        {
          "internalType": "bool",
          "name": "force",
          "type": "bool"
        },
        {
          "internalType": "bytes",
          "name": "data",
          "type": "bytes"
        }
      ],
      "name": "transfer",
      "outputs": [],
      "stateMutability": "nonpayable",
      "type": "function"
    },
    {
      "inputs": [
        {
          "internalType": "address[]",
          "name": "from",
          "type": "address[]"
        },
        {
          "internalType": "address[]",
          "name": "to",
          "type": "address[]"
        },
        {
          "internalType": "uint256[]",
          "name": "amount",
          "type": "uint256[]"
        },
        {
          "internalType": "bool[]",
          "name": "force",
          "type": "bool[]"
        },
        {
          "internalType": "bytes[]",
          "name": "data",
          "type": "bytes[]"
        }
      ],
      "name": "transferBatch",
      "outputs": [],
      "stateMutability": "nonpayable",
      "type": "function"
    },
    {
      "inputs": [
        {
          "internalType": "address",
          "name": "newOwner",
          "type": "address"
        }
      ],
      "name": "transferOwnership",
      "outputs": [],
      "stateMutability": "nonpayable",
      "type": "function"
    },
    {
      "stateMutability": "payable",
      "type": "receive"
    }
  ],
  "bytecode": "0x60806040523480156200001157600080fd5b5060405162002bc338038062002bc383398101604081905262000034916200050e565b828282600183838383838383806001600160a01b03811662000069576040516306b620db60e21b815260040160405180910390fd5b62000074816200018d565b506040805180820190915260048152632936598960e21b6020820152620000bd907feafec4d89fa9619884b60000a4d96624a38f7ac2d8d9a604ecf07c12c77e480c90620001fb565b620000e97fdeba1e292f8ba88238e10ab3c7f88bd4be4fac56cad5194b6ecceaf653468af184620001fb565b620001157f2f0a68ab07768e01943a599e73362a0e17a63a72e94dd2e384d2c1d4db93275683620001fb565b50506002805460ff19169215159290921790915550506040516200018496507fe0261fa95db2eb3b5439bd033cda66d56b96f92f243a8228fd87550ed7bdfdb395506200016e94506000935060200191506200059b9050565b60408051601f1981840301815291905262000243565b5050506200077c565b6000546001600160a01b03828116911614620001f857600080546040516001600160a01b03808516939216917f8be0079c531659141344cd1fd0a4f28419497f9722a3daafe3b4186f6b6457e091a3600080546001600160a01b0319166001600160a01b0383161790555b50565b600082815260016020526040902062000215828262000653565b508160008051602062002ba3833981519152826040516200023791906200071f565b60405180910390a25050565b7f2145e1d6d074577dc71ef54c3807742b41b053a9352ae6b491331509acb9750f820162000284576040516385c169bd60e01b815260040160405180910390fd5b7fd0f59754f88971fe6bc5a6618cc9d5f1e859c58d16b22d1c7b2d3e2b246cd8aa8201620002c557604051630eceab6760e31b815260040160405180910390fd5b6000828152600160205260409020620002df828262000653565b508160008051602062002ba38339815191526101008351111562000313576200030d83600061010062000324565b62000315565b825b6040516200023791906200071f565b6060816200033481601f62000754565b1015620003795760405162461bcd60e51b815260206004820152600e60248201526d736c6963655f6f766572666c6f7760901b60448201526064015b60405180910390fd5b62000385828462000754565b84511015620003cb5760405162461bcd60e51b8152602060048201526011602482015270736c6963655f6f75744f66426f756e647360781b604482015260640162000370565b606082158015620003ec576040519150600082526020820160405262000438565b6040519150601f8416801560200281840101858101878315602002848b0101015b81831015620004275780518352602092830192016200040d565b5050858452601f01601f1916604052505b50949350505050565b634e487b7160e01b600052604160045260246000fd5b60005b83811015620004745781810151838201526020016200045a565b50506000910152565b600082601f8301126200048f57600080fd5b81516001600160401b0380821115620004ac57620004ac62000441565b604051601f8301601f19908116603f01168101908282118183101715620004d757620004d762000441565b81604052838152866020858801011115620004f157600080fd5b6200050484602083016020890162000457565b9695505050505050565b6000806000606084860312156200052457600080fd5b83516001600160401b03808211156200053c57600080fd5b6200054a878388016200047d565b945060208601519150808211156200056157600080fd5b5062000570868287016200047d565b604086015190935090506001600160a01b03811681146200059057600080fd5b809150509250925092565b6020810160038310620005be57634e487b7160e01b600052602160045260246000fd5b91905290565b600181811c90821680620005d957607f821691505b602082108103620005fa57634e487b7160e01b600052602260045260246000fd5b50919050565b601f8211156200064e57600081815260208120601f850160051c81016020861015620006295750805b601f850160051c820191505b818110156200064a5782815560010162000635565b5050505b505050565b81516001600160401b038111156200066f576200066f62000441565b6200068781620006808454620005c4565b8462000600565b602080601f831160018114620006bf5760008415620006a65750858301515b600019600386901b1c1916600185901b1785556200064a565b600085815260208120601f198616915b82811015620006f057888601518255948401946001909101908401620006cf565b50858210156200070f5787850151600019600388901b60f8161c191681555b5050505050600190811b01905550565b60208152600082518060208401526200074081604085016020870162000457565b601f01601f19169190910160400192915050565b808201808211156200077657634e487b7160e01b600052601160045260246000fd5b92915050565b612417806200078c6000396000f3fe6080604052600436106101235760003560e01c8063760d9bba116100a0578063b49506fd11610064578063b49506fd146103c2578063ca3631e7146103e2578063d72fc29a14610402578063dedff9c61461042f578063f2fde38b1461045c5761017e565b8063760d9bba146103345780637b204c4e146103545780637f23690c146103745780638da5cb5b1461038757806397902421146103af5761017e565b806354f6127f116100e757806354f6127f1461027c57806365aeaa95146102a957806370a08231146102c9578063715018a6146102ff5780637580d920146103145761017e565b806301ffc9a7146101bf57806318160ddd146101f45780632bc1da82146102135780632d7667c914610235578063313ce567146102555761017e565b3661017e57346000036101655760405163e5099ee360e01b815260040161015c9060208082526004908201526000604082015260600190565b60405180910390fd5b604051630e23d6b760e21b815260040160405180910390fd5b600036606060048210156101a957828260405163e5099ee360e01b815260040161015c9291906118cd565b6101b3838361047c565b80519350602001915050f35b3480156101cb57600080fd5b506101df6101da3660046118fc565b610571565b60405190151581526020015b60405180910390f35b34801561020057600080fd5b506003545b6040519081526020016101eb565b34801561021f57600080fd5b5061023361022e366004611a05565b6105a5565b005b34801561024157600080fd5b50610233610250366004611c37565b610603565b34801561026157600080fd5b5061026a6106f2565b60405160ff90911681526020016101eb565b34801561028857600080fd5b5061029c610297366004611d08565b61070b565b6040516101eb9190611d71565b3480156102b557600080fd5b506102056102c4366004611d84565b610716565b3480156102d557600080fd5b506102056102e4366004611db7565b6001600160a01b031660009081526004602052604090205490565b34801561030b57600080fd5b5061023361077c565b34801561032057600080fd5b5061023361032f366004611dd2565b610790565b34801561034057600080fd5b5061023361034f366004611e39565b6107aa565b34801561036057600080fd5b5061023361036f366004611a05565b610803565b610233610382366004611ea4565b61087b565b34801561039357600080fd5b506000546040516001600160a01b0390911681526020016101eb565b6102336103bd366004611eea565b6108b0565b3480156103ce57600080fd5b506102336103dd366004611a05565b610970565b3480156103ee57600080fd5b506102336103fd366004611f43565b6109ae565b34801561040e57600080fd5b5061042261041d366004611db7565b6109ee565b6040516101eb9190611f7a565b34801561043b57600080fd5b5061044f61044a366004611fc7565b610a12565b6040516101eb9190611ffb565b34801561046857600080fd5b50610233610477366004611db7565b610abc565b606060006104956000356001600160e01b031916610af7565b90506001600160a01b0381166104cc5760405163bb370b2b60e01b81526001600160e01b031960003516600482015260240161015c565b600080826001600160a01b031634878733346040516020016104f1949392919061205d565b60408051601f198184030181529082905261050b91612088565b60006040518083038185875af1925050503d8060008114610548576040519150601f19603f3d011682016040523d82523d6000602084013e61054d565b606091505b5091509150811561056257925061056b915050565b80518060208301fd5b92915050565b60006001600160e01b031982166302a8ca8960e11b1480610596575061059682610b70565b8061056b575061056b82610b95565b6000826105b28533610716565b6105bc91906120ba565b90506105ca33858385610bd2565b60003382846040516020016105e1939291906120cd565b60405160208183030381529060405290506105fc8582610d41565b5050505050565b8451845181141580610616575083518114155b80610622575082518114155b8061062e575081518114155b1561064c5760405163263eee8d60e01b815260040160405180910390fd5b60005b818110156106e9576106e187828151811061066c5761066c6120fd565b6020026020010151878381518110610686576106866120fd565b60200260200101518784815181106106a0576106a06120fd565b60200260200101518785815181106106ba576106ba6120fd565b60200260200101518786815181106106d4576106d46120fd565b60200260200101516107aa565b60010161064f565b50505050505050565b60025460009060ff166107055750601290565b50600090565b606061056b82610ded565b6000826001600160a01b0316826001600160a01b03160361075057506001600160a01b03811660009081526004602052604090205461056b565b506001600160a01b0380821660009081526006602090815260408083209386168352929052205461056b565b610784610e8f565b61078e6000610ecb565b565b610798610e8f565b6107a484848484610f39565b50505050565b836001600160a01b0316856001600160a01b0316036107db57604051620b9afb60ec1b815260040160405180910390fd5b336001600160a01b038616146107f6576107f6338685611025565b6105fc85858585856110b1565b600061080f8433610716565b90508281101561083257604051630ef76c3560e01b815260040160405180910390fd5b82810361084133868386610bd2565b6000338285604051602001610858939291906120cd565b60405160208183030381529060405290506108738682610d41565b505050505050565b610883610e8f565b34156108a25760405163f36ba73760e01b815260040160405180910390fd5b6108ac8282611233565b5050565b6108b8610e8f565b34156108d75760405163f36ba73760e01b815260040160405180910390fd5b80518251146108f957604051633bcc897960e01b815260040160405180910390fd5b815160000361091b576040516397da5f9560e01b815260040160405180910390fd5b60005b825181101561096b5761096383828151811061093c5761093c6120fd565b6020026020010151838381518110610956576109566120fd565b6020026020010151611233565b60010161091e565b505050565b61097c33848484610bd2565b6000338383604051602001610993939291906120cd565b60405160208183030381529060405290506107a48482610d41565b6109bb3383600084610bd2565b6000336000836040516020016109d393929190612113565b604051602081830303815290604052905061096b8382610d41565b6001600160a01b038116600090815260056020526040902060609061056b90611327565b606081516001600160401b03811115610a2d57610a2d611942565b604051908082528060200260200182016040528015610a6057816020015b6060815260200190600190039081610a4b5790505b50905060005b8251811015610ab657610a91838281518110610a8457610a846120fd565b6020026020010151610ded565b828281518110610aa357610aa36120fd565b6020908102919091010152600101610a66565b50919050565b610ac4610e8f565b6001600160a01b038116610aeb576040516306b620db60e21b815260040160405180910390fd5b610af481610ecb565b50565b600080610b1b696773c5a04a6d4300884b60b11b6001600160e01b03198516611334565b90506000610b2882610ded565b90508051601414158015610b3c5750805115155b15610b5c57806040516342bfe79f60e01b815260040161015c9190611d71565b610b6581612140565b60601c949350505050565b60006001600160e01b0319821663a918fa6b60e01b148061056b575061056b82611388565b600080610ba86301ffc9a760e01b610af7565b90506001600160a01b038116610bc15750600092915050565b610bcb81846113bd565b9392505050565b6001600160a01b038316610bf9576040516331aaf3b360e11b815260040160405180910390fd5b836001600160a01b0316836001600160a01b031603610c2b5760405163dab7504760e01b815260040160405180910390fd5b6001600160a01b0380851660009081526006602090815260408083209387168352929052208290558115610ccd576001600160a01b0384166000908152600560205260409020610c7b9084611446565b5081846001600160a01b0316846001600160a01b03167f0744b3de98efaff36606a0e67662fb8697adb0ed49d90730bdb4bbf885f3059784604051610cc09190611d71565b60405180910390a46107a4565b6001600160a01b0384166000908152600560205260409020610cef908461145b565b50836001600160a01b0316836001600160a01b03167f9ebfc34ce0da1178c4be66252d63a8a173d733c4bbb049241ce142dc4f0e022883604051610d339190611d71565b60405180910390a350505050565b610d5282631aed5a8560e21b6113bd565b156108ac57604051631aed5a8560e21b81526001600160a01b03831690636bb56a1490610da5907f386072cc5a58e61263b434c722725f21031cd06e7c552cfaa06db5de8a320dbc908590600401612177565b6000604051808303816000875af1925050508015610de557506040513d6000823e601f3d908101601f19168201604052610de29190810190612190565b60015b61096b575050565b6000818152600160205260409020805460609190610e0a906121fd565b80601f0160208091040260200160405190810160405280929190818152602001828054610e36906121fd565b8015610e835780601f10610e5857610100808354040283529160200191610e83565b820191906000526020600020905b815481529060010190602001808311610e6657829003601f168201915b50505050509050919050565b33610ea26000546001600160a01b031690565b6001600160a01b03161461078e5760405163bf1169c560e01b815233600482015260240161015c565b6000546001600160a01b03828116911614610af457600080546040516001600160a01b03808516939216917f8be0079c531659141344cd1fd0a4f28419497f9722a3daafe3b4186f6b6457e091a3600080546001600160a01b0383166001600160a01b031990911617905550565b6001600160a01b038416610f6057604051630d2d5ec360e41b815260040160405180910390fd5b8260036000828254610f7291906120ba565b90915550506001600160a01b03841660009081526004602052604081208054859290610f9f9084906120ba565b90915550506040516001600160a01b0385169060009033907f3997e418d2cef0b3b0e907b1e39605c3f7d32dbd061e82ea5b4a770d46a160a690610fe890889088908890612231565b60405180910390a46000808585846040516020016110099493929190612252565b60405160208183030381529060405290506105fc858483611470565b6001600160a01b038083166000908152600660209081526040808320938716835292905220548082111561108d5760405163f3a6b69160e01b81526001600160a01b03808516600483015260248201839052851660448201526064810183905260840161015c565b6107a4838561109c858561228f565b60405180602001604052806000815250610bd2565b6001600160a01b03851615806110ce57506001600160a01b038416155b156110ec57604051630d2d5ec360e41b815260040160405180910390fd5b6001600160a01b0385166000908152600460205260409020548084111561113f576040516308d4794960e01b8152600481018290526001600160a01b03871660248201526044810185905260640161015c565b6001600160a01b0386166000908152600460205260408120805486929061116790849061228f565b90915550506001600160a01b038516600090815260046020526040812080548692906111949084906120ba565b92505081905550846001600160a01b0316866001600160a01b0316336001600160a01b03167f3997e418d2cef0b3b0e907b1e39605c3f7d32dbd061e82ea5b4a770d46a160a68787876040516111ec93929190612231565b60405180910390a460008686868560405160200161120d9493929190612252565b60405160208183030381529060405290506112288782611578565b6106e9868583611470565b7f2145e1d6d074577dc71ef54c3807742b41b053a9352ae6b491331509acb9750f8201611273576040516385c169bd60e01b815260040160405180910390fd5b7fd0f59754f88971fe6bc5a6618cc9d5f1e859c58d16b22d1c7b2d3e2b246cd8aa82016112b357604051630eceab6760e31b815260040160405180910390fd5b60008281526001602052604090206112cb82826122e8565b50817fece574603820d07bc9b91f2a932baadf4628aabcb8afba49776529c14a6104b26101008351111561130c57611307836000610100611623565b61130e565b825b60405161131b9190611d71565b60405180910390a25050565b60606000610bcb83611730565b604080516001600160b01b0319841660208201526000602a82018190526001600160601b03198416602c83015291829101604051602081830303815290604052905080611380906123a7565b949350505050565b60006001600160e01b031982166318a6a9a560e21b148061056b57506301ffc9a760e01b6001600160e01b031983161461056b565b604080516001600160e01b03198316602480830191909152825180830390910181526044909101909152602080820180516001600160e01b03166301ffc9a760e01b178152825160009392849283928392918391908a617530fa92503d9150600051905082801561142f575060208210155b801561143b5750600081115b979650505050505050565b6000610bcb836001600160a01b03841661178b565b6000610bcb836001600160a01b0384166117da565b61148183631aed5a8560e21b6113bd565b1561151b57604051631aed5a8560e21b81526001600160a01b03841690636bb56a14906114d4907f20804611b3e2ea21c480dc465142210acf4a2485947541770ec1fb87dee4a55c908590600401612177565b6000604051808303816000875af11580156114f3573d6000803e3d6000fd5b505050506040513d6000823e601f3d908101601f191682016040526107a49190810190612190565b8161096b576001600160a01b0383163b15611554576040516353047ddb60e11b81526001600160a01b038416600482015260240161015c565b6040516309b091fd60e21b81526001600160a01b038416600482015260240161015c565b61158982631aed5a8560e21b6113bd565b156108ac57604051631aed5a8560e21b81526001600160a01b03831690636bb56a14906115dc907f429ac7a06903dbc9c13dfcb3c9d11df8194581fa047c96d7a4171fc7402958ea908590600401612177565b6000604051808303816000875af11580156115fb573d6000803e3d6000fd5b505050506040513d6000823e601f3d908101601f1916820160405261096b9190810190612190565b60608161163181601f6120ba565b10156116705760405162461bcd60e51b815260206004820152600e60248201526d736c6963655f6f766572666c6f7760901b604482015260640161015c565b61167a82846120ba565b845110156116be5760405162461bcd60e51b8152602060048201526011602482015270736c6963655f6f75744f66426f756e647360781b604482015260640161015c565b6060821580156116dd5760405191506000825260208201604052611727565b6040519150601f8416801560200281840101858101878315602002848b0101015b818310156117165780518352602092830192016116fe565b5050858452601f01601f1916604052505b50949350505050565b606081600001805480602002602001604051908101604052809291908181526020018280548015610e8357602002820191906000526020600020905b81548152602001906001019080831161176c5750505050509050919050565b60008181526001830160205260408120546117d25750815460018181018455600084815260208082209093018490558454848252828601909352604090209190915561056b565b50600061056b565b600081815260018301602052604081205480156118c35760006117fe60018361228f565b85549091506000906118129060019061228f565b9050818114611877576000866000018281548110611832576118326120fd565b9060005260206000200154905080876000018481548110611855576118556120fd565b6000918252602080832090910192909255918252600188019052604090208390555b8554869080611888576118886123cb565b60019003818190600052602060002001600090559055856001016000868152602001908152602001600020600090556001935050505061056b565b600091505061056b565b60208152816020820152818360408301376000818301604090810191909152601f909201601f19160101919050565b60006020828403121561190e57600080fd5b81356001600160e01b031981168114610bcb57600080fd5b80356001600160a01b038116811461193d57600080fd5b919050565b634e487b7160e01b600052604160045260246000fd5b604051601f8201601f191681016001600160401b038111828210171561198057611980611942565b604052919050565b60006001600160401b038211156119a1576119a1611942565b50601f01601f191660200190565b600082601f8301126119c057600080fd5b81356119d36119ce82611988565b611958565b8181528460208386010111156119e857600080fd5b816020850160208301376000918101602001919091529392505050565b600080600060608486031215611a1a57600080fd5b611a2384611926565b92506020840135915060408401356001600160401b03811115611a4557600080fd5b611a51868287016119af565b9150509250925092565b60006001600160401b03821115611a7457611a74611942565b5060051b60200190565b600082601f830112611a8f57600080fd5b81356020611a9f6119ce83611a5b565b82815260059290921b84018101918181019086841115611abe57600080fd5b8286015b84811015611ae057611ad381611926565b8352918301918301611ac2565b509695505050505050565b600082601f830112611afc57600080fd5b81356020611b0c6119ce83611a5b565b82815260059290921b84018101918181019086841115611b2b57600080fd5b8286015b84811015611ae05780358352918301918301611b2f565b8035801515811461193d57600080fd5b600082601f830112611b6757600080fd5b81356020611b776119ce83611a5b565b82815260059290921b84018101918181019086841115611b9657600080fd5b8286015b84811015611ae057611bab81611b46565b8352918301918301611b9a565b600082601f830112611bc957600080fd5b81356020611bd96119ce83611a5b565b82815260059290921b84018101918181019086841115611bf857600080fd5b8286015b84811015611ae05780356001600160401b03811115611c1b5760008081fd5b611c298986838b01016119af565b845250918301918301611bfc565b600080600080600060a08688031215611c4f57600080fd5b85356001600160401b0380821115611c6657600080fd5b611c7289838a01611a7e565b96506020880135915080821115611c8857600080fd5b611c9489838a01611a7e565b95506040880135915080821115611caa57600080fd5b611cb689838a01611aeb565b94506060880135915080821115611ccc57600080fd5b611cd889838a01611b56565b93506080880135915080821115611cee57600080fd5b50611cfb88828901611bb8565b9150509295509295909350565b600060208284031215611d1a57600080fd5b5035919050565b60005b83811015611d3c578181015183820152602001611d24565b50506000910152565b60008151808452611d5d816020860160208601611d21565b601f01601f19169290920160200192915050565b602081526000610bcb6020830184611d45565b60008060408385031215611d9757600080fd5b611da083611926565b9150611dae60208401611926565b90509250929050565b600060208284031215611dc957600080fd5b610bcb82611926565b60008060008060808587031215611de857600080fd5b611df185611926565b935060208501359250611e0660408601611b46565b915060608501356001600160401b03811115611e2157600080fd5b611e2d878288016119af565b91505092959194509250565b600080600080600060a08688031215611e5157600080fd5b611e5a86611926565b9450611e6860208701611926565b935060408601359250611e7d60608701611b46565b915060808601356001600160401b03811115611e9857600080fd5b611cfb888289016119af565b60008060408385031215611eb757600080fd5b8235915060208301356001600160401b03811115611ed457600080fd5b611ee0858286016119af565b9150509250929050565b60008060408385031215611efd57600080fd5b82356001600160401b0380821115611f1457600080fd5b611f2086838701611aeb565b93506020850135915080821115611f3657600080fd5b50611ee085828601611bb8565b60008060408385031215611f5657600080fd5b611f5f83611926565b915060208301356001600160401b03811115611ed457600080fd5b6020808252825182820181905260009190848201906040850190845b81811015611fbb5783516001600160a01b031683529284019291840191600101611f96565b50909695505050505050565b600060208284031215611fd957600080fd5b81356001600160401b03811115611fef57600080fd5b61138084828501611aeb565b6000602080830181845280855180835260408601915060408160051b870101925083870160005b8281101561205057603f1988860301845261203e858351611d45565b94509285019290850190600101612022565b5092979650505050505050565b8385823760609290921b6001600160601b031916919092019081526014810191909152603401919050565b6000825161209a818460208701611d21565b9190910192915050565b634e487b7160e01b600052601160045260246000fd5b8082018082111561056b5761056b6120a4565b60018060a01b03841681528260208201526060604082015260006120f46060830184611d45565b95945050505050565b634e487b7160e01b600052603260045260246000fd5b6001600160a01b038416815260ff831660208201526060604082018190526000906120f490830184611d45565b805160208201516001600160601b0319808216929190601483101561216f5780818460140360031b1b83161693505b505050919050565b8281526040602082015260006113806040830184611d45565b6000602082840312156121a257600080fd5b81516001600160401b038111156121b857600080fd5b8201601f810184136121c957600080fd5b80516121d76119ce82611988565b8181528560208385010111156121ec57600080fd5b6120f4826020830160208601611d21565b600181811c9082168061221157607f821691505b602082108103610ab657634e487b7160e01b600052602260045260246000fd5b83815282151560208201526060604082015260006120f46060830184611d45565b6001600160a01b038581168252841660208201526040810183905260806060820181905260009061228590830184611d45565b9695505050505050565b8181038181111561056b5761056b6120a4565b601f82111561096b57600081815260208120601f850160051c810160208610156122c95750805b601f850160051c820191505b81811015610873578281556001016122d5565b81516001600160401b0381111561230157612301611942565b6123158161230f84546121fd565b846122a2565b602080601f83116001811461234a57600084156123325750858301515b600019600386901b1c1916600185901b178555610873565b600085815260208120601f198616915b828110156123795788860151825594840194600190910190840161235a565b50858210156123975787850151600019600388901b60f8161c191681555b5050505050600190811b01905550565b80516020808301519190811015610ab65760001960209190910360031b1b16919050565b634e487b7160e01b600052603160045260246000fdfea264697066735822122089f5e1eec2b1e96d49316d790762fec9cd94d98f8ed03d32015161d113bd0d7e64736f6c63430008130033ece574603820d07bc9b91f2a932baadf4628aabcb8afba49776529c14a6104b2",
  "linkReferences": {},
  "deployedLinkReferences": {}
}